{
  "_format": "hh-sol-artifact-1",
  "contractName": "UrlShortener",
  "sourceName": "contracts/URLShortener.sol",
  "abi": [
    {
      "anonymous": false,
      "inputs": [
        {
          "indexed": true,
          "internalType": "string",
          "name": "shortCode",
          "type": "string"
        },
        {
          "indexed": false,
          "internalType": "string",
          "name": "longUrl",
          "type": "string"
        }
      ],
      "name": "URLShortened",
      "type": "event"
    },
    {
      "inputs": [
        {
          "internalType": "string",
          "name": "shortCode",
          "type": "string"
        }
      ],
      "name": "getURL",
      "outputs": [
        {
          "internalType": "string",
          "name": "",
          "type": "string"
        }
      ],
      "stateMutability": "view",
      "type": "function"
    },
    {
      "inputs": [
        {
          "internalType": "string",
          "name": "shortCode",
          "type": "string"
        },
        {
          "internalType": "string",
          "name": "longUrl",
          "type": "string"
        }
      ],
      "name": "setURL",
      "outputs": [],
      "stateMutability": "nonpayable",
      "type": "function"
    }
  ],
  "bytecode": "0x608060405234801561001057600080fd5b50610913806100206000396000f3fe608060405234801561001057600080fd5b50600436106100365760003560e01c806306a8c9931461003b578063dd392a5514610057575b600080fd5b610055600480360381019061005091906102bc565b610087565b005b610071600480360381019061006c919061033d565b61019a565b60405161007e919061041a565b60405180910390f35b600084849050116100cd576040517f08c379a00000000000000000000000000000000000000000000000000000000081526004016100c490610488565b60405180910390fd5b60008282905011610113576040517f08c379a000000000000000000000000000000000000000000000000000000000815260040161010a906104f4565b60405180910390fd5b818160008686604051610127929190610553565b908152602001604051809103902091826101429291906107bc565b508383604051610153929190610553565b60405180910390207f9fe481f7a7b06c123d956dc2c3b279940b01e54d71d3463580840d606a3db39d838360405161018c9291906108b9565b60405180910390a250505050565b6060600083836040516101ae929190610553565b908152602001604051809103902080546101c7906105d5565b80601f01602080910402602001604051908101604052809291908181526020018280546101f3906105d5565b80156102405780601f1061021557610100808354040283529160200191610240565b820191906000526020600020905b81548152906001019060200180831161022357829003601f168201915b5050505050905092915050565b600080fd5b600080fd5b600080fd5b600080fd5b600080fd5b60008083601f84011261027c5761027b610257565b5b8235905067ffffffffffffffff8111156102995761029861025c565b5b6020830191508360018202830111156102b5576102b4610261565b5b9250929050565b600080600080604085870312156102d6576102d561024d565b5b600085013567ffffffffffffffff8111156102f4576102f3610252565b5b61030087828801610266565b9450945050602085013567ffffffffffffffff81111561032357610322610252565b5b61032f87828801610266565b925092505092959194509250565b600080602083850312156103545761035361024d565b5b600083013567ffffffffffffffff81111561037257610371610252565b5b61037e85828601610266565b92509250509250929050565b600081519050919050565b600082825260208201905092915050565b60005b838110156103c45780820151818401526020810190506103a9565b60008484015250505050565b6000601f19601f8301169050919050565b60006103ec8261038a565b6103f68185610395565b93506104068185602086016103a6565b61040f816103d0565b840191505092915050565b6000602082019050818103600083015261043481846103e1565b905092915050565b7f53686f727420636f64652063616e6e6f7420626520656d707479000000000000600082015250565b6000610472601a83610395565b915061047d8261043c565b602082019050919050565b600060208201905081810360008301526104a181610465565b9050919050565b7f4c6f6e672055524c2063616e6e6f7420626520656d7074790000000000000000600082015250565b60006104de601883610395565b91506104e9826104a8565b602082019050919050565b6000602082019050818103600083015261050d816104d1565b9050919050565b600081905092915050565b82818337600083830152505050565b600061053a8385610514565b935061054783858461051f565b82840190509392505050565b600061056082848661052e565b91508190509392505050565b600082905092915050565b7f4e487b7100000000000000000000000000000000000000000000000000000000600052604160045260246000fd5b7f4e487b7100000000000000000000000000000000000000000000000000000000600052602260045260246000fd5b600060028204905060018216806105ed57607f821691505b602082108103610600576105ff6105a6565b5b50919050565b60008190508160005260206000209050919050565b60006020601f8301049050919050565b600082821b905092915050565b6000600883026106687fffffffffffffffffffffffffffffffffffffffffffffffffffffffffffffffff8261062b565b610672868361062b565b95508019841693508086168417925050509392505050565b6000819050919050565b6000819050919050565b60006106b96106b46106af8461068a565b610694565b61068a565b9050919050565b6000819050919050565b6106d38361069e565b6106e76106df826106c0565b848454610638565b825550505050565b600090565b6106fc6106ef565b6107078184846106ca565b505050565b5b8181101561072b576107206000826106f4565b60018101905061070d565b5050565b601f8211156107705761074181610606565b61074a8461061b565b81016020851015610759578190505b61076d6107658561061b565b83018261070c565b50505b505050565b600082821c905092915050565b600061079360001984600802610775565b1980831691505092915050565b60006107ac8383610782565b9150826002028217905092915050565b6107c6838361056c565b67ffffffffffffffff8111156107df576107de610577565b5b6107e982546105d5565b6107f482828561072f565b6000601f8311600181146108235760008415610811578287013590505b61081b85826107a0565b865550610883565b601f19841661083186610606565b60005b8281101561085957848901358255600182019150602085019450602081019050610834565b868310156108765784890135610872601f891682610782565b8355505b6001600288020188555050505b50505050505050565b60006108988385610395565b93506108a583858461051f565b6108ae836103d0565b840190509392505050565b600060208201905081810360008301526108d481848661088c565b9050939250505056fea26469706673582212201f6f6f14c5f78f9c27227ff778c3be4c8cbb3f8901a35b3c08f4ca2e142db45464736f6c63430008110033",
  "linkReferences": {},
  "deployedLinkReferences": {}
}